:1000000000000320D1010000D1020100890201009B
:1000100089020100890201008902010089020100B0
:10002000890201008902010089020100D102010058
:10003000D102010089020100ED210100F12101003E
:10004000D1020100D1020100D1020100D102010060
:10005000D1020100D1020100D1020100D102010050
:10006000D1020100D1020100D1020100D102010040
:10007000D1020100D1020100D1020100D102010030
:10008000D1020100D1020100D1020100D102010020
:10009000D1020100D1020100D1020100D102010010
:1000A000D1020100D1020100D1020100D102010000
:1000B000D1020100D1020100D10201006110010052
:1000C000D1020100D1020100D1020100D1020100E0
:1000D000D1020100D1020100D1020100D1020100D0
:1000E000D1020100D1020100D1020100D1020100C0
:1000F000D1020100D1020100D1020100D1020100B0
:10010000E1F20000F5F2000009F300001DF3000029
:10011000D102010055130100D1020100D1020100FA
:10012000D1020100D1020100D1020100D10201007F
:10013000D1020100D1020100D1020100D10201006F
:10014000D1020100D1020100D1020100D10201005F
:10015000D1020100D1020100D1020100D10201004F
:10016000D1020100D1020100D1020100D10201003F
:10017000D1020100D1020100D1020100D10201002F
:10018000D1020100D1020100D1020100D10201001F
:10019000D1020100D1020100D1020100D10201000F
:1001A000D1020100D1020100D1020100D1020100FF
:1001B000D1020100D1020100D1020100D1020100EF
:1001C000D1020100D1020100D1020100D1020100DF
:1001D0005C4B4CF2205210B51A804DF628121A8052
:1001E00000BF00BF10F078F8574B4FF030621A6034
:1001F000564A9A60564ADA60564B4FF470021A60BB
:10020000554B564A1A60564B1A78110703D51A787F
:1002100042F008021A70534B5349AA221A70534AEB
:10022000534B8B4204D252F8040F43F8040BF8E707
:10023000504B514900228B4202D243F8042BFAE77B
:100240004E494F4A002352F8230041F8230001335E
:10025000742BF8D14B4B4C4A802103F8011B93427D
:10026000FBD14A4B454A1A60494B8A221A70A3F5C2
:10027000805324225A70A0221A709A799207FCD5D2
:100280009A79D406FCD4434A937903F00C03082BE3
:10029000FAD1414B60221A7002331A78802AFCD1BD
:1002A0003C4B01221A715D225A719A799006FCD555
:1002B0009979384A4906FBD5384B394919600021EC
:1002C000596020231370937903F00C030C2BFAD19F
:1002D000344B354A1A60354A354C136813F4807331
:1002E00003D123604FF4A8531360324B324A1A6093
:1002F00000225A60072243F8042C304AC3F80C2D20
:1003000062B610F01FF92368DA0705D52C4810F003
:1003100005F92C4B2C4A1A602C4B1B785B0609D52F
:10032000284C294B22689A4204D1254810F0F6F84F
:10033000002323600FF0D6FF40F002FA0FF0C8FE52
:10034000FEE700BF0E20054030800440823F0400DD
:100350000100002B88ED00E0002008E0030000858C
:1003600002D0074000E007401413FF1F948F0500E0
:100370003007FF1F1813FF1FC83CFF1F0002FF1F9D
:100380000000000000E400E064E400E008ED00E0AC
:10039000005006400040064001E007404480044011
:1003A0000000060204800440C010070010D0034083
:1003B00014D0034014E000E01FBF02000000202022
:1003C0000E6E66631CE00340A5C3945A00F007401C
:1003D000FFFFFFFFFFFFFFFFFFFFFFFFFFFFFFFF2D
:1003E000FFFFFFFFFFFFFFFFFFFFFFFFFFFFFFFF1D
:1003F000FFFFFFFFFFFFFFFFFFFFFFFFFFFFFFFF0D
:10040000FFFFFFFFFFFFFFFFFFFFFFFFDEF9FFFF23
:1004100010B5054C237833B9044B13B10448AFF33E
:1004200000800123237010BD1813FF1F000000007F
:10043000585D0500084B10B51BB108490848AFF3DB
:1004400000800848036803B910BD074B002BFBD0A0
:10045000BDE81040184700BF000000001C13FF1F3C
:10046000585D05001413FF1F00000000012A06D08C
:10047000022A02D108B10B680360002070470160B6
:100480000020704770B5224B06681D685C682DED32
:10049000028B05F5A66582B004F5A66428460DF02A
:1004A00087FD20460DF084FD28460DF059FD2046BD
:1004B0000DF056FD284600210DF08AFD2046002152
:1004C000B0EE408A0DF084FDD6ED017A38EE000AD8
:1004D000F8EEE77AB4EEE70AF1EE10FA11DD0D4B13
:1004E00032681B680193019B9B1AB3F57A7F08D988
:1004F000336953B106F1080073699847064809F05B
:100500009BFD02B0BDEC028B70BD32F085FE00BFDA
:100510004807FF1F5824FF1FAC13FF1F10B50446E8
:10052000006808B10FF06CFF204610BD022AF8B534
:100530001446064618D0032A07D0012A01D000200D
:10054000F8BD0B6803600020F8BD0468002CF6D0ED
:1005500023691BB104F10801084698472046182179
:100560000FF052FF0020F8BD18200F680FF044FF75
:10057000002397E8060003613B69054680E8060012
:1005800043B1224607F10801083098477A693B6970
:100590002B616A6135600020F8BD00BF30B52DEDDC
:1005A000028B8BB0B0EE408A0DF03AFFB3EE0E0A2C
:1005B0000AF0E2FD0022009206AB089202A90D4D5E
:1005C0000D4C0E488DED028A4FF0FF3205950494D4
:1005D00009F0BCFD089B1BB106A9032208469847F9
:1005E000049B1BB102A90322084698470BB0BDEC3F
:1005F000028B30BD110900006D040000AC13FF1F19
:10060000F0B5454D2B689BB006460F4603F5A66036
:10061000012114460DF08AFC6868012100F5A660EE
:100620000DF084FC3D4AA368126803920399159665
:1006300000221491189216AD3BB1022228462146A1
:100640009847E268A3681992189300261820069626
:100650000FF0D2FE034695E80300149C159A1C6027
:100660005A6010AC03F1080284E8030092E803002A
:1006700085E8030094E8030082E80300199A1899BA
:10068000D3F814E05A61264A1961049304A9254B52
:100690000792204602220A96129618960693CDF8E3
:1006A00064E0FFF743FF0A9B0799069A0E961391A1
:1006B00012920CAE3BB10222304608A998470B9A21
:1006C0000A9B0F920E93002300933A46334621462D
:1006D000154809F03BFD0E9B1BB103223146304605
:1006E0009847129B1BB103222146204698470A9B3C
:1006F0001BB108A9084603229847069B1BB104A911
:10070000032208469847189B1BB103222946284616
:1007100098471BB0F0BD00BF4807FF1F5824FF1FBC
:10072000850400002D050000AC13FF1FFFFFFFFF35
:100730002DE9F84F82462DED088B00F20C55DFEDC8
:100740005E9A9FED5EAA9FED5EBADFED5EAA04465B
:100750004FF0070B55E0304639463DF08DFE4246DE
:100760004B46394609EE100A30463DF001FA0022A8
:10077000002306460F463DF035FE002800F092802B
:10078000304639463DF078FE06EE900AD4ED125A16
:1007900094ED116A94ED137AD4ED147AD4ED28BA5D
:1007A00094ED295A29EE258A78EEA88A28EE098A3E
:1007B000F0EE464AE8EEA54AA9EE068A26EE877ACA
:1007C000A4EEA68AA7EE268A38EE278A78EE6B7A00
:1007D00084ED268AF4EEC57AF1EE10FAACBF01235F
:1007E000002384F8B43032DBC4ED277A04D500232B
:1007F00084ED2AAA84F8B430BBF1010B04F1B804EB
:100800004CD0DAF8040055F8041F03685B68984779
:1008100060EE297AB0EE408A17EE900A3DF008FBB0
:10082000D4ED108A84ED2C8A064618EE900A0F4605
:100830003DF0FEFA8046894602460B463046394670
:100840003DF0BCFD002886D14046494685E718A307
:10085000D3E90023D4E916013DF03EFB68EE0B7AA4
:100860000646EBEEAA7A0F46B83417EE900A3DF032
:10087000DFFA02460B46304639463DF07BF93DF043
:10088000FBFD44F8180C18EE100A3DF0D1FABBF14C
:10089000010B04ED07AA44E91801B2D1BDEC088BA5
:1008A000BDE8F88FDFED056A70E700BFAFF30080A9
:1008B00000000060716A893F00007A440000000077
:1008C0008B534B3C64A5793F38B50C4D0C4C2846F6
:1008D00011F000FF22460B49284611F0D5FC0FF01D
:1008E000F1FA094B09492246002418461C605C6055
:1008F0009C60BDE8384011F0C7BC00BF3413FF1F37
:100900003007FF1FF12601003813FF1F1D050000EF
:1009100070B5304E34682DED028B05462046FFF74A
:1009200007FF2046002104F5A162D0F89830C0F8F6
:10093000A810C0F8A030B8308242F6D174682046C2
:10094000FFF7F6FE2046002104F5A162D0F89830AA
:10095000C0F8A810C0F8A030B8308242F6D195EDAA
:10096000007ADFED1D0A1D4B9FED1D8AD3ED007A45
:10097000F2EE046AE7EE260AB8EE000AF6EE006A26
:10098000A7EE260AF4EE480AF1EE10FAB4EEE70AF2
:10099000C8BFF0EE480AF1EE10FA98BFB0EE670A51
:1009A00001F0C4F81A220F490F480EF0C1FC0E22C4
:1009B0000E490D480EF0BCFCF0EE480A95ED000A19
:1009C00000F0CEFC0DF02CFDBDEC028BBDE87040BC
:1009D0000AF01CBC4807FF1F000048423C07FF1FED
:1009E0000000C84270E704001017FF1F8CE70400E6
:1009F0002DE9F0472DED0C8B0023A4B0B2EE001AC8
:100A0000F1EE000A9FEDD80A03604FF0FF33436018
:100A10000E469046074600F051FD0DF001FD0AF02C
:100A200037FB0722B0EE408AD049D148D14D0EF0B5
:100A30007FFC18EE100A3DF0FBF941EC1A0B022185
:100A4000B0EE4A0AF0EE6A0AC9480EF0FDFC032235
:100A5000C949C7480EF06CFC1222C849C4480EF0C0
:100A600067FC0DF0D9FC642109F028FD00F0C2FFFD
:100A70000D22C349BE48F0EE408A0EF059FC0A220E
:100A8000C049BB480EF054FC0122BF49B8480EF0E3
:100A90004FFC0722B549B6480EF04AFCB0EE4A0AB0
:100AA000F0EE6A0A0221B2480EF0CEFC0322B249EF
:100AB000AF480EF03DFC0A22B449AD480EF038FCB8
:100AC00018EE900A3DF0B4F941EC1B0B0221B0EE98
:100AD0004B0AF0EE6B0AA6480EF0B6FC0522AC49B4
:100AE000A3480EF025FC2868FFF722FE6868FFF790
:100AF0001FFE2B6808AA03F5A160D3F89C1042F8EA
:100B0000041BB8339842F8D108AC0FCC0DF1580E45
:100B1000AEE80F0094E807009FED9E7A9E4C9FED93
:100B20009F6A8EE8070016A9F0EE476AF0EE475A72
:100B3000B0EE475A04F1380C23460A46F2EC017A2B
:100B4000F4EEC67AF1EE10FA10DD93ED004AD3ED23
:100B5000014AA7EE845AE7EEA45AF4EEC77AF1EE02
:100B600010FA76EEA76A88BFB0EE677A08339C4524
:100B7000E4D1F5EE406AF1EE10FA00F03683DFEDD5
:100B8000887A9FED846A27EE277A0DF1740EF1ECD6
:100B9000017AF4EEC77AF1EE10FAD4BFC7EE874AB5
:100BA000F7EE004A8E4536EE246AF0D1F1EE0C7A6B
:100BB00085EE26DA85EEA6CA86EE279A6B680FAA1E
:100BC00003F5A160D3F89C1042F8041BB833984297
:100BD000F8D10DF13C09B9E80F00F246AAE80F0080
:100BE00099E807009FED6B7A9FED6C6A8AE8070031
:100BF0007346F0EE476AF0EE475AB0EE475A724637
:100C0000F2EC017AF4EEC67AF1EE10FA10DD94ED12
:100C1000004AD4ED014AA7EE845AE7EEA45AF4EE56
:100C2000C77AF1EE10FA76EEA76A88BFB0EE677A5F
:100C30000834A445E4D1F5EE406AF1EE10FA00F074
:100C4000E082DFED577A9FED536A27EE277A24AAD8
:100C5000F3EC017AF4EEC77AF1EE10FAD4BFC7EEE6
:100C6000874AF7EE004A9A4236EE246AF0D1F1EE56
:100C70000C7AC5EE26DAC5EEA6CAC6EE279A06227B
:100C800048493B480EF054FB19EE100A3DF0D0F8ED
:100C900041EC100B022136480EF0D6FB03224249EC
:100CA00033480EF045FB19EE900A3DF0C1F841ECD7
:100CB000100B02212E480EF0C7FB012232492C48AE
:100CC0000EF036FB0422394929480EF031FB1DEEA7
:100CD000100A3DF0ADF841EC100B022124480EF053
:100CE000B3FB0322304922480EF022FB1DEE900A8E
:100CF0003DF09EF841EC100B02211D480EF0A4FBC4
:100D0000012221491A480EF013FB042228491848F1
:100D10000EF00EFB1CEE100A3DF08AF841EC100BB1
:100D2000022113480EF090FB03221F4910480EF0D9
:100D3000FFFA1CEE900A3DF07BF841EC100B02210B
:100D40000B480EF081FB01220F4909480EF0F0FA22
:100D50002B68184A93ED277AD3ED557A049293EDD8
:100D6000B16AD3ED835A27E09A99193F9CE70400B2
:100D70001017FF1F4807FF1FA4E70400A8E704009F
:100D8000BCE70400CCE7040070F50400D8E70400D9
:100D9000E4E704000000000038E70400CDCCCC3DBF
:100DA0003333333FECE70400F4E70400F8E70400D2
:100DB00000E804000000F041DA4A059277EE877AF5
:100DC000B6EE005A03F2344292ED007ADFEDD66AB5
:100DD000D64ADFEDD74A76EE255A67EE857A93ED4F
:100DE000DF6ACDED007A65EE855A36EE077A77EE4A
:100DF000A67A27EE057A75EEA77A03F2EC430692FF
:100E000093ED006ACDED015A77EE277A39EE899A93
:100E100077EE867A8DED027AF4EEE47AF1EE10FA4E
:100E20008DED036A00F1EA8104AA69466B46144617
:100E30001046D3ED005AB0EC016A85EEA77AA3EC18
:100E4000017A9A42E7EE066AF3D1DFEDB7DAF2EC07
:100E5000017AB1EC017A77EEE67A8C4227EE277AB6
:100E6000E7EE87DAF3D16B68B24AD3ED276AD3EDA8
:100E7000557A049293EDB16AD3ED835AA94A05924B
:100E800077EEA67AB6EE005A03F23442D2ED006A4B
:100E90009FEDA57AA54ADFEDA64A76EE255A67EEC4
:100EA000857A93EDDF6ACDED007A65EE855A76EEB0
:100EB000266A77EE877A66EE856A75EEA77A03F280
:100EC000EC43069293ED006ACDED015A77EEA67AD7
:100ED000CDED026A77EE867A8DED036AF4EEE47A60
:100EE000F1EE10FAB0EE47DA20D404AA69466B4658
:100EF0001446104693ED006AF0EC016A86EE277AFC
:100F0000A3EC017A9342A7EE26DAF3D19FED867A1D
:100F1000F2EC017AF1EC016A77EECD7AA14266EE4D
:100F2000A76AA7EEA67AF3D1B0EE47DA3DEE2D7AA6
:100F3000F2EE047A052280498048C7EE279A0EF027
:100F4000F7F91DEE900A3CF073FF41EC100B022103
:100F50007A480EF079FA0322794978480EF0E8F9D8
:100F60001DEE100A3CF064FF41EC100B02217348A7
:100F70000EF06AFA0122734970480EF0D9F9414621
:100F800071480EF059FA012270496F480EF0D0F9FD
:100F9000B0EE4A0AF0EE6A0A02216B480EF054FAEB
:100FA00001226A4968480EF0C3F9B0EE4B0AF0EE30
:100FB0006B0A022164480EF047FA01226349624835
:100FC0000EF0B6F919EE100A3CF032FF41EC100BAE
:100FD00002215D480EF038FA01225C495A480EF0B1
:100FE000A7F919EE900A3CF023FF41EC100B022107
:100FF00055480EF029FA0122544953480EF098F949
:101000000122504950480EF093F93CEE8CCADFEDB6
:10101000507A96E80C00B6EE007AECEE077A9B1A4E
:101020009B08C7ED007A00F0DA809FED4AAA002500
:1010300052F8254004A821460EF036FB04A93F488B
:101040000EF08CF9022244493C480EF071F904A8D4
:101050000EF0D6FAD4ED057AB4EEE78AF1EE10FA86
:101060000BDBD4ED067AB4EEE78AF1EE10FA04D881
:101070000E223A4931480EF05BF9D4ED087AF4EECD
:10108000E78AF1EE10FA0BDBD4ED097AF4EEE78A89
:10109000F1EE10FA04D81122314928480EF048F92F
:1010A000D4ED0B7AB4EEE79AF1EE10FA0BDBD4ED47
:1010B0000C7AB4EEE79AF1EE10FA04D80D22294921
:1010C0001E480EF035F9D4ED0E7AF4EEE79AF1EE03
:1010D00010FA0BDBD4ED0F7AF4EEE79AF1EE10FA8A
:1010E00004D81122204915480EF022F90122154991
:1010F00012480EF01DF9D4ED057AB4EEE78AF1EE50
:1011000010FA64DBD4ED067AB4EEE78AF1EE10FA59
:101110005DD8D4ED087AF4EEE78AF1EE10FA56DBEA
:1011200026E000BF0000A0410000000000002041B8
:101130006F12833A0000F04108E804001017FF1F07
:10114000F4E7040070F50400F416FF1FC8EC040077
:1011500000008CC100247449CCE8040010E80400AD
:1011600020E8040034E8040044E804000000000023
:10117000D4ED097AF4EEE78AF1EE10FA27D8D4ED2F
:101180000B7AB4EEE79AF1EE10FA20DBD4ED0C7A8C
:10119000B4EEE79AF1EE10FA19D8D4ED047AD4ED52
:1011A000076A78EE675A38EEE66A85EEA77AC6EEE9
:1011B000267AB0EEC77AF0EEE77A77EE277AF4EE89
:1011C000CA7AF1EE10FA44BFB0EE67AA7D6096E8E5
:1011D0000C0001359B1AB5EBA30FFFF429AF38467D
:1011E00024B0BDEC0C8BBDE8F0871FED20CA0DF1DB
:1011F000740EB0EE4CDAB0EE4C9ADFE4F0EE66DA44
:1012000031E65FED26CAF0EE6CDAF0EE6C9A36E568
:101210001449DFED157A0B6803F5A16293ED277A87
:10122000B833934277EE877AF8D1D0ED006AF4EEC6
:10123000E67AF1EE10FA13D44B68DFED0B7A03F582
:10124000A16293ED277AB833934277EE877AF8D18B
:10125000F4EEE76AF1EE10FACCBF012000207047EF
:10126000012070474807FF1F00000000012A06D038
:10127000022A02D108B10B680360002070470160A8
:1012800000207047012A08BF01600020704700BF9E
:1012900010B50446006D08B10FF0B2F8E36B23B14E
:1012A00004F13401084603229847E36A23B104F1AC
:1012B000240108460322984704F114000EF0A0F917
:1012C000204610BD022A70B504460FD0032A07D06D
:1012D000012A01D0002070BD0B680360002070BDA2
:1012E000006810210FF090F8002070BD10200E68EB
:1012F0000FF082F8054696E80F00256085E80F009C
:10130000002070BD38B5084C0021201D08F0B6FB48
:10131000257C201D08F036FC0DB1002038BD0348A7
:10132000BDE8384008F096BEAC13FF1F7814FF1FCD
:1013300038B5074C251D0021284608F09FFB247C6A
:10134000284684F0010408F01DFC204638BD00BF8B
:10135000AC13FF1F012A08BF01600020704700BFC7
:1013600000B50B490B480C4B0C4A086085B0694628
:101370000293CDED000A03920DF05CFA029B1BB1C3
:10138000032269466846984705B05DF804FB00BF34
:101390004407FF1F0814FF1F6D1200001112000008
:1013A0002DE9F0438BB00024814610200D46904675
:1013B0001F469DF8486004940FF01EF8009406AB99
:1013C0004672C560C0F80090C0F8048007720290B1
:1013D00002A90C4E0C4D0D4808944FF0FF320596B3
:1013E000049508F0B3FE089B1BB106A9032208462A
:1013F0009847049B1BB102A90322084698470BB0EB
:10140000BDE8F0833D170000C51200007814FF1FEF
:10141000014808F011BE00BF7814FF1F10B52DED74
:10142000028B86B0002300934FF0FF32B0EE408A6B
:101430000E4CFFF7B5FF0E4B0E480F4A0493B0EE6B
:10144000480A02A9206005920DF0F4F9049B1BB133
:1014500002A9032208469847084808F0EDFD2068D5
:101460000DF05EF806B0BDEC028B10BD4407FF1F07
:10147000551300004413FF1F051300007814FF1FCD
:1014800000B50A490A480B4B0B4A086085B069460B
:10149000029303920DF0CEF9029B1BB10322694621
:1014A0006846984705B05DF804FB00BF4407FF1F7E
:1014B0004413FF1F851200003113000070B52DED9D
:1014C000048BF0EE609AB0EE418AF0EE408A0CF0A8
:1014D000A7FF09F0DDFDB0EE409A0CF0A1FFB0EEE1
:1014E000690A09F0D9FC254E254C2648002108F050
:1014F000C5FA357C234808F045FBA5BBB5EEC08A8C
:10150000F1EE10FA0ADD0CF08BFF09F0C1FD30EEB0
:10151000490AB4EEC08AF1EE10FA24D92068FFF728
:1015200007F96068FFF704F923689FED177A03F560
:10153000A162D3ED277AB833934237EE277AF8D1F8
:101540006368DFED117A03F5A162D3ED276AB83342
:10155000934277EEA67AF8D177EE877AF4EEE87ABE
:10156000F1EE10FAC1D80CF05BFFBDEC048B9FEDDF
:10157000060ABDE8704009F01BBD00BFAC13FF1F99
:101580004807FF1FB013FF1F000000002DE9F04FB8
:101590002DED028B5548564D8FB011F09BF8554AF2
:1015A0005549524810F070FE0EF08CFC53490AA8C1
:1015B0000EF066F8002304200693079308930EF0BC
:1015C0001BFF03461C1D4E481D600AA906AA069370
:1015D0000894079408F0ECFC069808B10EF010FF90
:1015E0000AA80EF00DF8434A4649454810F04CFE53
:1015F000454906A80EF044F806A90AA80EF054F8CA
:10160000002303AA0AA9414803930493059308F011
:10161000CFFC039808B10EF0F3FE0AA80DF0F0FF1E
:1016200006A80DF0EDFF334A36493848DFF8FC8054
:10163000DFF8FC90364F374EDFF8F8A010F024FEAC
:101640000CF0EEFE344B3549C3F8388000240025F9
:101650004FF0FF32B3EE048A4FF0140BDD611D76BC
:101660001A625D7683ED018A5D62DC601C615C61FB
:10167000C3F828B0586319600192DC631C645C6491
:101680009C641C65DC65C3F84CA0C3F854909F654E
:101690001E660CF0C5FE224B019ADD6121491A62DB
:1016A000DFF894E0204A83ED018ADC601C615C6114
:1016B0001D765D765D62C3F828B05863C3F8388044
:1016C0005C649C64DC641C65C3F854A09C65C3F82E
:1016D0005C901F665C669E66C3F800E0D9631A647E
:1016E000DA660FB0BDEC028BBDE8F08FA813FF1FC8
:1016F0005007FF1F3007FF1FF126010058E80400C4
:10170000AC13FF1F9112000068E804007814FF1F5B
:10171000666666BF000048424413FF1F20FF0400B6
:101720000814FF1FCDCC4C3D000020414807FF1F8F
:101730000000FA430000A04034FF04002DE9F04F00
:101740009A4BD0F800A09A4FDFF8848293E86000AB
:101750002DED068B05F5A6652846012189B00CF014
:10176000E5FB924B5868012100F5A66006F5A666D8
:101770000CF0DCFB00218F4808F080F93C7C8D48A0
:1017800008F000FA002C00F096804FF47A718A4835
:101790008A4CDFED8B8ADFED8B9A9FED8B9A9FED64
:1017A0008BAA08F055F928460CF0DAFB30460CF00D
:1017B000D7FB28460CF0FCFB30460CF0F9FB236805
:1017C0000293DDF808B04FF0000901E008F03EF99F
:1017D0000021784808F052F997F81080754808F011
:1017E000D1F9B8F1000F40F08680DAF80C203AB158
:1017F000236804930499714BCBEB01018A4264D3B3
:1018000023680593059BC9EB03030A2BDED96B4BB9
:101810001B6807932846DDF81C900CF0A1FB3046AE
:101820000CF09EFB28460CF0C9FB3046B0EE408A17
:101830000CF0C4FB9AF8093038EE400A0BB9B1EE4F
:10184000400A20EE290A624BA8EE890A1868F0EED9
:10185000408A0CF065FEDAF800305B4207EE903A01
:10186000F8EEE77AB0EE408AF4EEE78AF1EE10FA8D
:1018700059D4DAF80430002B09DD07EE903AF8EE7F
:10188000E77AF4EEE78AF1EE10FA00F386809AF830
:101890000830002B9AD038EE4A8AB7EE000AB4EE30
:1018A000408A4B4BF1EE10FA88BFB0EE480A186838
:1018B0000CF0E6FE8AE7D8F800000CF07DFE002868
:1018C0007FF463AF08F0C2F854E70B224149424865
:1018D00001930DF02DFD019B3F481B680393039975
:1018E0000A22CBEB010143460DF066FD03223B4982
:1018F00039480DF01DFD2D4B1868002100F5A6603C
:101900000CF014FB294B5868002100F5A6600CF080
:101910000DFB1322324930480DF00AFD09B0BDEC31
:10192000068BBDE8F08F0CF083FDF0EE08AA70EE98
:101930002AAA1022B4EE6A8AF1EE10FAA8BFF0EEDD
:1019400048AA284924480DF0F3FC1AEE900A3CF00E
:101950006FFA41EC100B02211F480DF075FD0222B9
:1019600021491D480DF0E4FCF5EEC0AAF1EE10FA95
:101970007FF72CAFF3EE047AF4EEE7AAF1EE10FA5B
:101980007FF524AF124BB0EE6A0A18680CF078FEAF
:1019900023680693DDF818B018E7062213490E48AD
:1019A0000DF0C6FC124808F047FB0FE74807FF1F81
:1019B0007814FF1F7C14FF1F9416FF1F5824FF1F6D
:1019C00000000000CCCC4C3ECDCC4C3F0AD7233C91
:1019D0004407FF1FACE804001017FF1FB8E804001D
:1019E00098E8040078E804008CE8040090E804001B
:1019F000AC13FF1F30B52DED068B83B00CF010FD3E
:101A000009F046FB414CDFED428AF0EE409A0CF0C3
:101A100007FDB9EE040A09F03FFA23680093009D20
:101A2000BFEE008AB0EE089AB2EE0EAA17E00CF0F4
:101A300021FD0CF0FDFCF0EE408A0CF0F1FC09F009
:101A400027FB30EE690AB0EEC08AB4EEC98AF1EE27
:101A500010FA20DAF4EECA8AF1EE10FA1BDA2368E3
:101A60000193019B5B1BB3F5617F4FF01400DED344
:101A70000CF0D6FC9FED260A09F09AFAF5EEC08A22
:101A8000F1EE10FACCBF88EE880A9FED210A03B070
:101A9000BDEC068B30BD12221E491F480DF048FCDC
:101AA00018EE100A3CF0C4F941EC100B02211A4860
:101AB0000DF0CAFC0C22194917480DF039FC18EE3C
:101AC000900A3CF0B5F941EC100B022112480DF0E0
:101AD000BBFC0222124910480DF02AFC0A221149CF
:101AE0000D480DF025FCC8EE887A17EE900A3CF000
:101AF0009FF941EC100B022107480DF0A5FC0522CF
:101B0000094905480DF014FCB2E700BF5824FF1F37
:101B100000000000BCE804001017FF1FD0E804001C
:101B20008CE80400D8E70400E4E704002DE9F04F56
:101B30002DED048B10228BB08F499048904FB0EE62
:101B4000608AF0EE408A0DF0F3FB0CF069FC09F0BE
:101B50009FFAF7EE087A20EE270A3C689FED897A13
:101B600080EE089A002500232046089509950693E3
:101B7000079329EE079AFEF7DBFD20462A4604F577
:101B8000A161D0F89830C0F8A820C0F8A030B830D3
:101B90008142F6D17C682046FEF7CAFD204600212E
:101BA00004F5A162D0F89830C0F8A810C0F8A030B1
:101BB000B8308242F6D1744EDFF8F091DFED739ABF
:101BC0000CF02EFCB1EE480A09F066F93368039375
:101BD000DDF80C806E48002107F050FF99F81040A6
:101BE0006B4807F0CFFF002C40F0C08033680493AF
:101BF000049BC8EB030307EE903AF8EE677AB4EE65
:101C0000E79AF1EE10FA00F1B4800CF009FC09F04B
:101C100013FA01900CF004FC09F03AFAF7EE007A9E
:101C2000B4EEE70AF1EE10FA00F1A08014200CF0F7
:101C300021FC0DF1200A06AD57F824309FED558A9E
:101C400003F5A162D3ED277AB833934238EE278AA1
:101C5000F8D1F4EEC88AF1EE10FA24D5DAED007A64
:101C60002B68F4EEC87AF1EE10FA5ED503F1010BA1
:101C7000C5F800B01022484940480DF059FB18EE55
:101C8000100A3CF0D5F841EC100B02213B480DF056
:101C9000DBFB0222414939480DF04AFBBBF1030F3F
:101CA00062DC8AED008A0134022C0AF1040A05F193
:101CB0000405C1D133680593059BC8EB0303B3F555
:101CC0007A7F87D9DDED017AB8EEE78AF0EEC87A3F
:101CD000F4EEE97AF1EE10FA7FF77CAF1122304989
:101CE00026480DF025FB18EE100A3CF0A1F841EC57
:101CF000100B214621480DF0A7FB012229491F485E
:101D00000DF016FB6FF001040CF08AFB9FED210A29
:101D100009F04EF90F22244918480DF009FB20461E
:101D20000BB0BDEC048BBDE8F08F03F1FF3BBBF1C2
:101D3000000F02DDC5F800B09CE7002310222B60E5
:101D400015490E480DF0F4FA18EE100A3CF070F840
:101D500041EC100B022109480DF076FB02220F49DD
:101D600006480DF0E5FA9CE764B2CDE74FF0FF348A
:101D7000CAE76FF00204C7E7E0E804001017FF1F8E
:101D80004807FF1F00007A445824FF1F0000C84383
:101D9000B013FF1F00000000F4E804008CE804000A
:101DA00018E9040070F5040008E90400AC13FF1FF3
:101DB00007207047012A06D0022A02D108B10B6819
:101DC000036000207047016000207047012A06D0A0
:101DD000022A02D108B10B6803600020704701603D
:101DE00000207047012A034607D0022A03D110B110
:101DF00003C983E80300002070470160002070479A
:101E0000012A034607D0022A03D110B103C983E88F
:101E1000030000207047016000207047012A06D0AF
:101E2000022A02D108B10B680360002070470160EC
:101E300000207047012A06D0022A02D108B10B689F
:101E4000036000207047016000207047012A06D01F
:101E5000022A02D108B10B680360002070470160BC
:101E600000207047012A06D0022A02D108B10B686F
:101E7000036000207047016000207047012A06D0EF
:101E8000022A02D108B10B6803600020704701608C
:101E900000207047012A06D0022A02D108B10B683F
:101EA000036000207047016000207047012A06D0BF
:101EB000022A02D108B10B6803600020704701605C
:101EC00000207047012A06D0022A02D108B10B680F
:101ED000036000207047016000207047012A06D08F
:101EE000022A02D108B10B6803600020704701602C
:101EF00000207047012A06D0022A02D108B10B68DF
:101F0000036000207047016000207047012A06D05E
:101F1000022A02D108B10B680360002070470160FB
:101F200000207047012A06D0022A02D108B10B68AE
:101F3000036000207047016000207047012A06D02E
:101F4000022A02D108B10B680360002070470160CB
:101F500000207047012A034607D0022A03D110B19E
:101F600003C983E803000020704701600020704728
:101F7000012A034607D0022A03D110B103C983E81E
:101F8000030000207047016000207047012A0346CB
:101F900007D0022A03D110B103C983E8030000204F
:101FA0007047016000207047012A034607D0022ACB
:101FB00003D110B103C983E803000020704701601A
:101FC00000207047012A06D0022A02D108B10B680E
:101FD000036000207047016000207047012A03461B
:101FE00007D0022A03D110B103C983E803000020FF
:101FF0007047016000207047012A06D0022A02D1F2
:1020000008B10B6803600020704701600020704732
:10201000012A034607D0022A03D110B103C983E87D
:10202000030000207047016000207047012A06D09D
:10203000022A02D108B10B680360002070470160DA
:1020400000207047012A06D0022A02D108B10B688D
:102050000360002070470160002070470368024958
:10206000186803689B6818472C17FF1F012A06D0C1
:10207000022A02D108B10B6803600020704701609A
:1020800000207047012A06D0022A02D108B10B684D
:10209000036000207047016000207047012A06D0CD
:1020A000022A02D108B10B6803600020704701606A
:1020B00000207047012A06D0022A02D108B10B681D
:1020C000036000207047016000207047012A06D09D
:1020D000022A02D108B10B6803600020704701603A
:1020E00000207047012A06D0022A02D108B10B68ED
:1020F000036000207047016000207047012A06D06D
:10210000022A02D108B10B68036000207047016009
:1021100000207047012A06D0022A02D108B10B68BC
:10212000036000207047016000207047012A06D03C
:10213000022A02D108B10B680360002070470160D9
:1021400000207047012A06D0022A02D108B10B688C
:10215000036000207047016000207047012A06D00C
:10216000022A02D108B10B680360002070470160A9
:1021700000207047012A034607D0022A03D110B17C
:1021800003C983E803000020704701600020704706
:10219000012A034607D0022A03D110B103C983E8FC
:1021A000030000207047016000207047012A0346A9
:1021B00007D0022A03D110B103C983E8030000202D
:1021C0007047016000207047012A034607D0022AA9
:1021D00003D110B103C983E80300002070470160F8
:1021E00000207047012A034607D0022A03D110B10C
:1021F00003C983E803000020704701600020704796
:10220000012A06D0022A02D108B10B68036000201F
:102210007047016000207047012A06D0022A02D1CF
:1022200008B10B6803600020704701600020704710
:10223000012A06D0022A02D108B10B6803600020EF
:102240007047016000207047012A06D0022A02D19F
:1022500008B10B68036000207047016000207047E0
:10226000012A06D0022A02D108B10B6803600020BF
:102270007047016000207047012A06D0022A02D16F
:1022800008B10B68036000207047016000207047B0
:10229000012A06D0022A02D108B10B68036000208F
:1022A0007047016000207047012A06D0022A02D13F
:1022B00008B10B6803600020704701600020704780
:1022C000012A06D0022A02D108B10B68036000205F
:1022D0007047016000207047012A06D0022A02D10F
:1022E00008B10B6803600020704701600020704750
:1022F000012A06D0022A02D108B10B68036000202F
:102300007047016000207047012A06D0022A02D1DE
:1023100008B10B680360002070470160002070471F
:10232000012A06D0022A02D108B10B6803600020FE
:102330007047016000207047012A06D0022A02D1AE
:1023400008B10B68036000207047016000207047EF
:10235000012A06D0022A02D108B10B6803600020CE
:102360007047016000207047704700BF012A08BF16
:1023700001600020704700BF30B58BB00022009292
:1023800002AB049206A90B4D0B4C0C4809954FF07B
:10239000FF32089407F0DAFE049B1BB102A9032266
:1023A00008469847089B1BB106A903220846984790
:1023B0000BB030BD112F00002D290000AC13FF1F02
:1023C00090ED000AFFF75CB8044B054A1B681268E1
:1023D00053F8223093ED100AFFF752B83813FF1F5D
:1023E0003807FF1F03681268B82000FB023310B5DE
:1023F000D3F89C000C463BF01BFD41EC100B204633
:102400000321BDE810400DF01FB800BF036812683B
:10241000DFED0B7AB82000FB023393ED2C7A67EEE8
:10242000277A10B517EE900A0C463BF001FD41ECFF
:10243000100B20460321BDE810400DF005B800BF89
:1024400000007A4403681268DFED0B7AB82000FBC5
:10245000023393ED287A67EE277A10B517EE900ACB
:102460000C463BF0E5FC41EC100B20460321BDE897
:1024700010400CF0E9BF00BF00007A440368126806
:10248000DFED0B7AB82000FB023393ED287A67EE7C
:10249000277A10B517EE900A0C463BF0C9FC41ECC8
:1024A000100B20460321BDE810400CF0CDBF00BF4B
:1024B00000007A44014807F0BFBD00BF0016FF1FAF
:1024C00008B5044807F0B8FD034B1868BDE808409C
:1024D0000CF04EB8AC13FF1F4407FF1F03681868C9
:1024E0000CF046B800689FED067AD0ED117AF8EE50
:1024F000E77A002287EE870A1146012309F0BCBD66
:1025000000007A44002290ED010A00681146012380
:1025100009F0B2BD012390ED010A006819460022BE
:1025200009F0AABD10B504466C300DF069F82046DC
:1025300010BD00BF38B50468251D0021284607F0EE
:102540009DFA247C284684F0010407F01BFB2046FA
:1025500038BD00BF03681268B82000FB023308468C
:1025600093F8B43007EE903AF8EE677AF5EE407AD9
:10257000F1EE10FA14BF012100210CF05DBF00BF85
:10258000DFED020A90ED000AFEF7EABECDCC4C3E2C
:10259000BFEE001AF2EE040A9FED010AFEF78EBFAD
:1025A00000000000FFF726BA00B503680B4A19685F
:1025B00093ED020A08685968094B85B00091694695
:1025C000029303920CF036F9029B1BB10322694679
:1025D0006846984705B05DF804FB00BF352500004C
:1025E000F91F0000006801490AF05EB92C17FF1FAF
:1025F000006809F0D3BB00BF006809F0B5BB00BF9D
:10260000006809F001BC00BF006809F017BC00BFFA
:1026100000680AF081BA00BF4FF48072006811466A
:102620000AF062BA00684FF6FF624FF480710AF058
:102630005BBA00BF006809F0CBBB00BF006808F0C0
:10264000E5BD00BF10B5046801232046637009F0A2
:102650000FFC2046BDE8104009F012BD0EF09EBBF5
:10266000B6EE000AFDF79ABF10B5446834B12046B3
:102670000CF0C6FF204610210DF0C6FE10BD00BFB5
:1026800030B58BB00022009206AB089202A90B4D28
:102690000B4C0C4805954FF0FF32049407F056FDA3
:1026A000089B1BB106A9032208469847049B1BB14F
:1026B00002A90322084698470BB030BD91250000BF
:1026C000C9290000AC13FF1F30B58BB00022009267
:1026D00006AB089202A90B4D0B4C0C4805954FF028
:1026E000FF32049407F032FD089B1BB106A90322B8
:1026F00008469847049B1BB102A903220846984745
:102700000BB030BDA5250000D5290000AC13FF1F7C
:10271000036810B504461868012100F5A6600BF0A7
:1027200005FC23685868012100F5A660BDE810404B
:102730000BF0FCBB036810B504461868002100F5D7
:10274000A6600BF0F3FB23685868002100F5A66033
:10275000BDE810400BF0EABB30B503468BB05C68B7
:10276000006802940022009206AB089202A90B4D69
:102770000B4C05954FF0FF32049407F0E7FC089BE3
:102780001BB106A9032208469847049B1BB102A966
:102790000322084698470BB030BD00BF4526000015
:1027A000B51D000030B503468BB05C68006802942C
:1027B0000022009206AB089202A90B4D0B4C059526
:1027C0004FF0FF32049407F0C1FC089B1BB106A92F
:1027D000032208469847049B1BB102A9032208461E
:1027E00098470BB030BD00BFE5240000CD1D0000B0
:1027F00030B503468BB05C680068029400220092FA
:1028000006AB089202A90B4D0B4C05954FF0FF3219
:10281000049407F09BFC089B1BB106A90322084601
:102820009847049B1BB102A90322084698470BB0A6
:1028300030BD00BF896D00001D1E0000114B1B68DC
:10284000002B1DDB30B58BB00022009206AB089246
:1028500002A90D4D0D4C0E4805954FF0FF32049422
:1028600007F074FC089B1BB106A903220846984791
:10287000049B1BB102A90322084698470BB030BD48
:10288000704700BF3807FF1FC92300003929000027
:10289000AC13FF1F022A38B504460FD0032A07D015
:1028A000012A01D0002038BD0B680360002038BD2C
:1028B00000680C210DF0A8FD002038BD0C200D682B
:1028C0000DF09AFD034695E80700236083E80700B2
:1028D000002038BD022A38B504460FD0032A07D09D
:1028E000012A01D0002038BD0B680360002038BDEC
:1028F00000680C210DF088FD002038BD0C200D680B
:102900000DF07AFD034695E80700236083E8070091
:10291000002038BD012A08BF01600020704700BFB9
:10292000012A08BF01600020704700BF012A08BFCC
:1029300001600020704700BF012A08BF016000202D
:10294000704700BF012A08BF01600020704700BF28
:10295000012A08BF01600020704700BF012A08BF9C
:1029600001600020704700BF012A08BF01600020FD
:10297000704700BF012A08BF01600020704700BFF8
:10298000012A08BF01600020704700BF012A08BF6C
:1029900001600020704700BF012A08BF01600020CD
:1029A000704700BF012A08BF01600020704700BFC8
:1029B000012A08BF01600020704700BF012A08BF3C
:1029C00001600020704700BF012A08BF016000209D
:1029D000704700BF012A08BF01600020704700BF98
:1029E000012A08BF01600020704700BF012A08BF0C
:1029F00001600020704700BF012A08BF016000206D
:102A0000704700BF012A08BF01600020704700BF67
:102A1000012A08BF01600020704700BF012A08BFDB
:102A200001600020704700BF012A08BF016000203C
:102A3000704700BF012A08BF01600020704700BF37
:102A4000012A08BF01600020704700BF012A08BFAB
:102A500001600020704700BF012A08BF016000200C
:102A6000704700BF012A08BF01600020704700BF07
:102A7000012A08BF01600020704700BF012A08BF7B
:102A800001600020704700BF012A08BF01600020DC
:102A9000704700BF012A08BF01600020704700BFD7
:102AA000012A08BF01600020704700BF012A08BF4B
:102AB00001600020704700BF012A08BF01600020AC
:102AC000704700BF012A08BF01600020704700BFA7
:102AD000012A08BF01600020704700BF012A08BF1B
:102AE00001600020704700BF012A08BF016000207C
:102AF000704700BF012A08BF01600020704700BF77
:102B0000012A08BF01600020704700BF012A08BFEA
:102B100001600020704700BF012A08BF016000204B
:102B2000704700BF012A08BF01600020704700BF46
:102B3000012A08BF01600020704700BF012A08BFBA
:102B400001600020704700BF012A08BF016000201B
:102B5000704700BF012A08BF01600020704700BF16
:102B60002DE9F843541A184BE61003FB06F60F46FE
:102B70009046814636B1154B9E4222D820460DF034
:102B80003BFC06463444B845C9F80840C9F8006023
:102B900013D06EB13946304607F114050CF084FDB0
:102BA0000FCD3C7C347406F114040FC42B682360F1
:102BB0002837B84506F12806EBD1C9F80460BDE80E
:102BC000F88330F069FA00BFCDCCCCCC66666606DF
:102BD0002DE9F04790E80003C845824630D0D8F888
:102BE0001060D8F81470BE421DD0736A23B106F18C
:102BF0001C0108460322984734697569AC4206D027
:102C0000204628340CF0FCFCA542F9D1356915B1F9
:102C100028460DF0F5FB30462C360CF0F1FCB7429F
:102C2000E3D1D8F8107017B138460DF0E9FB4046F3
:102C300008F11C080CF0E4FCC145D0D1DAF8009092
:102C4000B9F1000F02D048460DF0DAFB5046BDE85E
:102C5000F08700BF2DE9F04190E8C000BE428046F9
:102C60001DD0736A23B106F11C0108460322984760
:102C700034697569AC4206D0204628340CF0C0FC9B
:102C8000A542F9D1356915B128460DF0B9FB30469A
:102C90002C360CF0B5FCB742E3D1D8F8007017B170
:102CA00038460DF0ADFB4046BDE8F08130B56420FC
:102CB0008BB00DF0D1FE0022009202AB049206A967
:102CC0000B4D0C4C0C4809954FF0FF32089407F05F
:102CD0003DFA049B1BB102A9032208469847089BB2
:102CE0001BB106A90322084698470BB030BD00BFB0
:102CF000192E000045290000AC13FF1F30B5DFED91
:102D00002B0A9FED2B0A2B4C87B00546FEF70EFFD2
:102D1000DFED290AB7EE000AFEF722FB2A682146FA
:102D20006846FDF765FE019D244804210FF074F804
:102D3000092123480FF070F8002D31DB236802AC25
:102D400053F8251020460CF0AFFC21461D480CF02E
:102D500005FB08211C480FF05FF800983BF068F86D
:102D600041EC100B022117480CF06EFB02211748B2
:102D70000FF052F820460CF043FC154B1D600BF091
:102D80004FFBD0ED117A9FED137AF8EEE77A00222F
:102D900087EE870A1146012309F06EF907B030BDAE
:102DA00002AC20460C490CF06BFCCEE70000484218
:102DB000CDCC4C3D3813FF1FCDCC4C3E64E9040014
:102DC0006CE904008C07FF1F80E904008CE9040013
:102DD0003807FF1F00007A4478E9040010B5042189
:102DE0000A4C0B480FF018F801210A480FF014F8AC
:102DF0002068002100F5A6600BF098F860680021BB
:102E000000F5A660BDE810400BF090B84807FF1F22
:102E100064E9040070F5040010B5DFED190A9FEDB8
:102E2000190A82B0FEF782FE174B184A186812681A
:102E3000012423464FF0FF310094FEF7B1FAB7EEBC
:102E4000000AFEF71DFBFEF7E3FA0BF0E9FAD0EDFE
:102E5000117A9FED0F7AF8EEE77A002287EE870A63
:102E60001146234609F008F904210A480EF0D4FF60
:102E70000948214602B0BDE810400EF0CDBF00BFAA
:102E800000004842CDCC4C3D3407FF1F4007FF1FD8
:102E900000007A4464E9040070F5040003689FEDC3
:102EA000177AD3ED027A186893ED010A00B567EE40
:102EB000877A83B0FCEEE77A17EE901AFEF7AEFA47
:102EC00004210F488DED010A0EF0A6FF01210D48E7
:102ED0000EF0A2FF9DED010A10EE100A3AF0A8FFD5
:102EE00041EC100B022108480CF0AEFA0748012112
:102EF00003B05DF804EB0EF08FBF00BF00007A4412
:102F000064E90400744405008C07FF1F70F5040099
:102F100030B51D4C87B0002221466846FDF768FD9C
:102F2000019D1A4804210EF077FF092118480EF080
:102F300073FF002D22DB236802AC53F825102046D6
:102F40000CF0B2FB214613480CF008FA0821124895
:102F50000EF062FF00983AF06BFF41EC100B02217B
:102F60000C480CF071FA02210C480EF055FF204677
:102F70000CF046FB0A4B1D6007B030BD02AC20468A
:102F800008490CF07DFBDDE73813FF1F64E90400FE
:102F90006CE904008C07FF1F80E904008CE9040041
:102FA0003807FF1F78E9040070B506460D46002477
:102FB0003368DFED107A53F8243003F5A16293ED06
:102FC0002A7AB8339A4277EE877AF8D117EE900AC8
:102FD0003AF02EFF41EC100B042128460CF034FA95
:102FE0002B6805495B680134012228469847022C6A
:102FF000DED170BD00000000C8EC040010B5006810
:103000000C4608F0B5F810EE100A3AF011FF41EC4A
:10301000100B204602210CF017FA236803495B6865
:1030200020460122BDE81040184700BFC8EC04004C
:10303000036810B518680C460BF086FA10EE100AFB
:103040003AF0F6FE41EC100B204602210CF0FCF9A0
:10305000236803495B6820460122BDE810401847F9
:10306000C8EC040010B500680C4608F047F810EEF4
:10307000100A3AF0DDFE41EC100B204602210CF064
:10308000E3F9236803495B6820460122BDE810404C
:10309000184700BFC8EC0400036810B518680C4658
:1030A0000BF076FA10EE100A3AF0C2FE41EC100B6B
:1030B000204602210CF0C8F9236803495B682046CA
:1030C0000122BDE810401847C8EC0400036870B541
:1030D000064618680E4D0C460BF0DEFF01462046F2
:1030E0000CF0AAF923682946012220465B6898471C
:1030F000336858680BF0D0FF014620460CF09CF96D
:103100002368294620465B680122BDE870401847C5
:10311000C8EC040070B5044608460D463FF070FF49
:1031200023680246294620465B68BDE87040184780
:10313000F0B50668234C33682348244F87B00D460A
:103140000594029604901B681478BB4234D1072082
:10315000844214D8049B0094002B30D0294602A846
:10316000059B6A46984728461949FFF7D3FF049BF9
:103170001BB102A908460322984707B0F0BDFF2CF7
:10318000F5D1002411E00720A042F0D9049B01945E
:10319000ABB1059B01AA294602A898472B680C49A8
:1031A0005B68012228461444984733681B68BB4279
:1031B000E9D030469847E7E730469847C8E730F00F
:1031C0002BF800BF7D24000045210000B11D000048
:1031D000C8EC040070B5164EF4683569AC4282B094
:1031E00021D02068227983698DF8072008343BB903
:1031F0001BE02068227983698DF807200834A3B189
:10320000C3690C4910300DF107029847A542F0D16F
:10321000F3683469E41AE30803D007490548FFF767
:1032200079FF02B070BD2346F4E72FF0F5FF00BF31
:10323000E815FF1FF416FF1F70F50400036810B5B2
:1032400018680C460BF06CF910EE100A3AF0F0FD1D
:1032500041EC100B204602210CF0F6F82046024902
:10326000FFF758FF10BD00BFC8EC040010B50068A0
:103270000C4607F009FF014620460CF0DDF8204619
:103280000149FFF747FF10BDC8EC04000368DFEDFC
:103290001E7A1B6870B503F5A16205460C4693EDD6
:1032A000277AB833934277EE877AF8D117EE900AEF
:1032B0003AF0BEFD41EC100B022120460CF0C4F8A0
:1032C00012492046FFF726FF2B68DFED0F7A5B6877
:1032D00003F5A16293ED277AB833934277EE877AAC
:1032E000F8D117EE900A3AF0A3FD41EC100B022141
:1032F00020460CF0A9F8236804495B6820460122A7
:10330000BDE87040184700BF00000000C8EC040092
:1033100070B5164EF4683569AC4282B021D0206891
:10332000227983698DF8072008343BB91BE02068B7
:10333000227983698DF807200834A3B1C3690C4949
:1033400010300DF107029847A542F0D1F3683469B7
:10335000E41AE30803D007490548FFF7DBFE02B093
:1033600070BD2346F4E72FF057FF00BFE815FF1F9D
:103370002C17FF1F70F50400F0B50668234C336866
:103380002348244F87B00D460594029604901B688D
:103390001478BB4234D10720844214D8049B009493
:1033A000002B30D0294602A8059B6A46984728463C
:1033B0001949FFF7AFFE049B1BB102A9084603227F
:1033C000984707B0F0BDFF2CF5D1002411E007208D
:1033D000A042F0D9049B0194ABB1059B01AA2946F8
:1033E00002A898472B680C495B68012228461444C0
:1033F000984733681B68BB42E9D030469847E7E7F7
:1034000030469847C8E72FF007FF00BF452400006B
:103410002D210000B11D0000C8EC0400F0B50668C5
:10342000234C33682348244F87B00D4605940296F9
:1034300004901B681478BB4234D10720844214D80E
:10344000049B0094002B30D0294602A8059B6A46B5
:10345000984728461949FFF75DFE049B1BB102A956
:1034600008460322984707B0F0BDFF2CF5D1002491
:1034700011E00720A042F0D9049B0194ABB1059B59
:1034800001AA294602A898472B680C495B680122CB
:1034900028461444984733681B68BB42E9D030463D
:1034A0009847E7E730469847C8E72FF0B5FE00BFDA
:1034B000E5230000FD200000B11D0000C8EC040061
:1034C000F0B50668234C33682348244F87B00D4677
:1034D0000594029604901B681478BB4234D10720EF
:1034E000844214D8049B0094002B30D0294602A8B3
:1034F000059B6A46984728461949FFF70BFE049B2F
:103500001BB102A908460322984707B0F0BDFF2C63
:10351000F5D1002411E00720A042F0D9049B0194CA
:10352000ABB1059B01AA294602A898472B680C4914
:103530005B68012228461444984733681B68BB42E5
:10354000E9D030469847E7E730469847C8E72FF07C
:1035500063FE00BF0D24000015210000B11D000016
:10356000C8EC0400F0B50668234C33682348244FA8
:1035700087B00D460594029604901B681478BB42F0
:1035800034D10720844214D8049B0094002B30D0FF
:10359000294602A8059B6A46984728461949FFF71D
:1035A000B9FD049B1BB102A908460322984707B046
:1035B000F0BDFF2CF5D1002411E00720A042F0D986
:1035C000049B0194ABB1059B01AA294602A8984728
:1035D0002B680C495B6801222846144498473368DD
:1035E0001B68BB42E9D030469847E7E7304698472A
:1035F000C8E72FF011FE00BF552500005D21000037
:10360000B11D0000C8EC040010B588B0044604A841
:103610000CF04AF8002304A9204601AA0193029362
:10362000039306F0C5FC019808B10CF0E9FE04A86C
:103630000BF0E6FF204608B010BD00BF2DE9F043B7
:103640008F688BB000240494804691461C46002F5E
:103650002CD00E4602AD02222846B847F268B36865
:1036600005920493A3680022089206AE3BB10222A1
:10367000304621469847E268A368099208930023E0
:1036800000934A4633464046294606F05FFD089BB4
:103690001BB10322314630469847049B1BB10322DD
:1036A0002946284698470BB0BDE8F08302ADD9E71C
:1036B00030B50E4A0E4B12680E4D12680E4889B096
:1036C00069460393002404AB02950694FFF7B6FF06
:1036D000069B1BB104A9032208469847029B1BB115
:1036E000032269466846984709B030BDD414FF1FCD
:1036F000D5310000BD2900000016FF1F0B7870B502
:1037000003700B78692B0D46044617D0732B0BD032
:10371000662B05D00B490C48FFF7FCFC204670BD1A
:103720004B684360204670BD10200CF065FE696850
:1037300006460BF0B9FF6660204670BD4B684360DB
:10374000204670BD90E904008017FF1F70B5044645
:103750000D460BF0F1FF002304F114026361A36135
:10376000E2612262A869636268B1A061E969E1610E
:10377000296A6E6A216205F114014260AB61E96158
:10378000296266626B62002304F12C02E362236308
:103790006263A263296BE36369B12163686B606351
:1037A000A86BEE6BA06305F12C004A602B63686385
:1037B000A863E663EB63204670BD00BF30B58BB0F5
:1037C0000022009206AB089202A90C4D0C4C0D4849
:1037D0008DED020A4FF0FF320595049406F0B6FC19
:1037E000089B1BB106A9032208469847049B1BB1FE
:1037F00002A90322084698470BB030BDBD6D0000FA
:1038000009230000AC13FF1F10B5164806F022FC78
:1038100020BB154C20680AF0CFFEB8B9134806F05B
:1038200019FC10B1114806F007FC0AF0F9FDD0EDC3
:10383000117A9FED0F7AF8EEE77A002287EE870A79
:1038400011460123BDE8104008F016BC20680AF0BC
:103850008FFE6421074806F0FBF8DFE7014806F019
:10386000EBFBD6E70015FF1F4407FF1FAC13FF1F3C
:1038700000007A449416FF1FFFF7C6BF2DE9F04FF2
:103880008BB00AF0C9FD574D574C584FDFF898914F
:1038900006F002FE0AF0C0FD4FF4167106F00EFEAF
:1038A00040F2EE282E6804E0B3F5FA6F15D80EF05A
:1038B000B7FB0EF0B5FB237843B13B78DB0705D5AA
:1038C0002B68D9F800209B1A0E2B06D82B6822787B
:1038D0009B1B002AE8D14345E9D905AE01E006F07B
:1038E000B5F8434806F080FE414806F067FE002820
:1038F000F5D03F49304606F06FFE3E4930460BF0AA
:10390000ABFF044630460BF07BFE002CE7D03A4874
:10391000DFF8F4B007F046FA384B394A3949012448
:10392000002718469C769776FFF7F4FB0AF05AFDBD
:103930004FF4FA700DF090F8E9465BF8048B07F14C
:103940008C0A4C46C9EB070528190CF005FB04F856
:10395000010BB442F8D1CE46BEE80F0025460FC594
:103960000FCCDEF800402C6008F140040FC414377F
:103970002B682360BA4508F1B808E2D1BAF58C7F0C
:10398000DBD1214B21491B6803F5A162C3F8A410C8
:10399000B8339A42FAD11C4B1C495B6803F5A1620B
:1039A000C3F8A410B8339342FAD19FED192ADFED82
:1039B000191ADFED190A1948B0EE421AB6EE000ADC
:1039C0000BF0C4F89FED122ADFED121A9FED141AC6
:1039D000DFED110A1348B2EE0E0A0BF071FA0BB0CC
:1039E000BDE8F08F5824FF1FDC25FF1FF425FF1FC3
:1039F0005C15FF1FA8E904006C18FF1F1017FF1FBC
:103A00006417FF1FB0E904004807FF1FCDCC4C3DF1
:103A10000000C842333373BF000000004413FF1F8F
:103A200000007A440814FF1FB83CFF1F10B50A4C71
:103A30002068FCF77DFE6068FCF77AFE0AF0F0FC77
:103A400007F026FB0AF0ECFC07F05CFB0AF0E8FC50
:103A5000BDE8104007F0F0BA4807FF1F70B5334EBD
:103A6000346805462046FCF763FE2046002104F535
:103A7000A162D0F89830C0F8A810C0F8A030B830D3
:103A80008242F6D174682046FCF752FE204600219F
:103A900004F5A162D0F89830C0F8A810C0F8A030A2
:103AA000B8308242F6D1224BD5ED000A93ED000AE0
:103AB000FEF73CF80330052836D8DFE800F0172180
:103AC0002B0D030304211B480EF0A6F904211A480C
:103AD000BDE870400EF0A0B9042116480EF09CF924
:103AE00004211648BDE870400EF096B90421114833
:103AF0000EF092F909211248BDE870400EF08CB921
:103B000004210C480EF088F908210E48BDE87040E9
:103B10000EF082B9042107480EF07EF906210A480A
:103B2000BDE870400EF078B970BD00BF4807FF1FB8
:103B30003C07FF1F64E90400CCE90400C4E9040069
:103B4000E8E90400DCE90400D4E904002DE9F04FC1
:103B50004B680C68404A1C1B83B0A610002302FB74
:103B600006F60D46019003604360836036B13B4B1F
:103B70009E426ED820460CF03FFC0646019A344423
:103B800094601660566095E8080453455CD0DFF8F1
:103B9000D4B098464FF00009002E4FD04146304631
:103BA0000BF082FDD8F81430D8F81050C6F81090F9
:103BB0005D1BEC100BFB04F4C6F81490C6F81890CB
:103BC00034B1274B9C4244D828460CF015FC0446DF
:103BD0002544B56134617461D8F81050D8F8147078
:103BE000BD4219D09CB1294620460BF05DFD05F180
:103BF000140CBCE80F0095F810E084F810E004F114
:103C0000140EAEE80F00DCF80030CEF80030283596
:103C1000AF4204F12804E5D17461C6F82490D8F8C5
:103C200024305BB1022208F11C0106F11C00984708
:103C3000D8F82830B362D8F82430736208F12C0821
:103C4000C24506F12C06A7D10198466003B0BDE835
:103C5000F08F2FF021FA00BFA38B2EBA5D74D1052F
:103C600066666606CDCCCCCC84B000B589B00DF1CB
:103C7000280E8EE80F009FED337A334BF0EE476A43
:103C8000F0EE475AB0EE475A03F1380071467246DB
:103C9000F2EC017AF4EEC07AF1EE10FA10DDD3ED19
:103CA000004A93ED016AA7EEA45AE7EE865AF4EEB5
:103CB000C77AF1EE10FA76EEA76A88BFB0EE677A9F
:103CC00008338342E4D1DFED1F7AF4EE676AF1EE48
:103CD00010FA2ED027EE207A11ABB1EC016AB4EEC7
:103CE000C76AF1EE10FAD4BFC6EE074AF7EE004AF3
:103CF0008B4277EEA47AF0D185EE267AF1EE0C4A6B
:103D000085EEA66A8DED067A87EEA47ACDED046A7B
:103D10008DED076A8DED057A9DED040ADDED050A4E
:103D20009DED061ADDED071A09B05DF804EB04B04D
:103D30007047CDED046ACDED057ACDED067ACDED77
:103D4000077AE9E7000000002CE9040070B52DEDCA
:103D5000028B03689AB01B6813AD06460C4603F548
:103D6000A1602A46D3F89C1042F8041BB833834262
:103D7000F8D11AAB13E907008DE80700DFED2F0A31
:103D80009FED2F0A95E80F00FFF76EFF33688DED6A
:103D9000040A5B68CDED050A0CAD8DED061ACDED7C
:103DA000071A03F5A1602A46D3F89C1042F8041BB9
:103DB000B8338342F8D110AB93E807008DE80700D1
:103DC000DFED1E0A9FED1E0A95E80F00FFF74CFF7E
:103DD0009DED048A9DED077ADDED067A38EE000A46
:103DE00077EE611A37EE811A61EE801AB6EE008A1C
:103DF00021EE887A61EE007A17EE100A27EE888AA3
:103E00003AF016F841EC100B022120460BF01CFB97
:103E10000C492046FFF77EF918EE100A3AF008F830
:103E200041EC100B022120460BF00EFB2046054909
:103E3000FFF770F91AB0BDEC028B70BD3333333F1E
:103E4000CDCCCC3DC8EC040070B503689AB01B68BB
:103E500013AD06460C4603F5A1602A46D3F89C1024
:103E600042F8041BB8338342F8D11AAB13E90700B8
:103E70008DE80700DFED1E0A9FED1E0A95E80F0092
:103E8000FFF7F2FE33688DED040A5B68CDED050A9D
:103E90000CAD8DED061ACDED071A03F5A1602A468B
:103EA000D3F89C1042F8041BB8338342F8D110AB0E
:103EB00093E807008DE807009FED0E0ADFED0C0A7E
:103EC00095E80F00FFF7D0FEDDED047A77EEC07ABB
:103ED00017EE900A39F0ACFF41EC100B022120469E
:103EE0000BF0B2FA20460449FFF714F91AB070BD7E
:103EF0003333333FCDCCCC3DC8EC040070B5036800
:103F00009AB01B6813AD06460C4603F5A1602A461D
:103F1000D3F89C1042F8041BB8338342F8D11AAB93
:103F200013E907008DE80700DFED310A9FED310A44
:103F300095E80F00FFF798FE33688DED040A5B6883
:103F4000CDED050A0CAD8DED061ACDED071A03F582
:103F5000A1602A46D3F89C1042F8041BB833834270
:103F6000F8D110AB93E807008DE80700DFED200AD9
:103F70009FED200A95E80F00FFF776FE06988DED7D
:103F80000A1ACDED0B1A39F053FF41EC100B022148
:103F900020460BF059FA18492046FFF7BBF80A985B
:103FA00039F046FF41EC100B022120460BF04CFA91
:103FB00011492046FFF7AEF8079839F039FF41EC78
:103FC000100B022120460BF03FFA0B492046FFF769
:103FD000A1F80B9839F02CFF41EC100B0221204680
:103FE0000BF032FA20460449FFF794F81AB070BD7E
:103FF0003333333FCDCCCC3DC8EC0400F8B58468F6
:10400000061DACB10D463746294604F110000BF0F1
:1040100039FC78B92746A468002CF5D1BE4207D0F8
:10402000284607F110010BF02DFC08B93846F8BD01
:104030003046F8BDE468002CE6D1EFE7C9B170B5B1
:1040400006460C46E1683046FFF7F8FFA36AA5680C
:1040500004F120010322084603B1984704F110003F
:104060000BF0CEFA20460CF0CBF92C46002DE9D10E
:1040700070BD704791B170B506460C46E168304698
:10408000FFF7F8FFA56804F110000BF0B9FA20461D
:104090000CF0B6F92C46002DF0D170BD704700BF72
:1040A00010B504462830216BFFF7E4FFA16904F145
:1040B0001000FFF7C3FF20460BF0A2FA204610BD08
:1040C00070B50646C06808B10CF09AF996E8300061
:1040D000AC4210D0216B04F12800FFF7CBFFA1699F
:1040E00004F11000FFF7AAFF204640340BF088FAD5
:1040F000A542EFD1356815B128460CF081F930465C
:1041000070BD00BF09B3F8B506460C4608E004F1DF
:1041100010000BF075FA20460CF072F92C469DB198
:10412000E1683046FFF7EEFF94F82030A568732B66
:10413000EDD1676A3846002FE9D00BF061FA3846B6
:1041400010210CF061F9E2E7F8BD704710B5816805
:104150000446FFF7D7FF204610BD00BF2DE9F84FFA
:104160000B1A4FEA232ABAF1000F8B460446154674
:1041700051DD00EB0A2A064611E038460BF05EFBE3
:1041800004F580742946E0B940460BF057FB2946F8
:10419000D0B948460BF052FBC8B954451AD029464D
:1041A00030460BF04BFB04F1400704F1800804F1AA
:1041B000C009294606F580760028DED02046BDE8F5
:1041C000F88F3846BDE8F88F4046BDE8F88F48467E
:1041D000BDE8F88FC4EB0B039B11022B0DD0032B12
:1041E00004D0012B10D05846BDE8F88F2946204650
:1041F0000BF024FB0028E1D14034294620460BF087
:104200001DFB0028DAD14034294620460BF016FB6E
:104210000028E8D0D2E79B11DFE700BF2DE9F84383
:1042200090E82400AB1A5FEAE3080646894637D0D7
:104230004FEA4801884536D96FF0070840460CF030
:10424000DBF896E824000746804400F10804AB1A26
:104250009646FB181CBF99E8030083E80300AE45AF
:1042600012D073463A461AB193E8030082E803007D
:104270000833AB4202F10802F5D10EF108041C1B11
:1042800024F0070410343C44BEF1000F02D0704605
:104290000CF0B6F837607460C6F80880BDE8F883A3
:1042A0004FF00808CAE7B1F1005FC5D221B98846CE
:1042B00096460F460824CCE74FEA0818BEE700BF31
:1042C00038B543688568AB4208D002461BB103C9C4
:1042D00083E8030053680833536038BDFFF79EFF3F
:1042E00038BD00BF2DE9F84F0B1A4FEA232ABAF167
:1042F000000F8B460446154651DD00EB0A2A0646A0
:1043000011E038460BF09AFA04F580742946E0B9BA
:1043100040460BF093FA2946D0B948460BF08EFA86
:10432000C8B954451AD0294630460BF087FA04F133
:10433000400704F1800804F1C009294606F580769B
:104340000028DED02046BDE8F88F3846BDE8F88F5B
:104350004046BDE8F88F4846BDE8F88FC4EB0B0334
:104360009B11022B0DD0032B04D0012B10D05846EB
:10437000BDE8F88F294620460BF060FA0028E1D10D
:104380004034294620460BF059FA0028DAD140344F
:10439000294620460BF052FA0028E8D0D2E79B11BC
:1043A000DFE700BF2DE9F8434468D0F80080C8EB90
:1043B0000405AD100646894605D06B009D4229D9FB
:1043C0006FF0030500E0042528460CF015F874682A
:1043D000D6F800800746C8EB0404D9F80030E7425D
:1043E00018BF3B51A3080DD104343C44B8F1000F71
:1043F00002D040460CF004F83D44B560376074606C
:10440000BDE8F88322464146384604343CF0DAFEE3
:104410003C44EEE7B3F1804FD2D213B91D461F469C
:10442000D9E7ED00D0E700BF38B543688468A34200
:1044300007D0024609680BB1196043680433536022
:1044400038BDFFF7AFFF38BD2DE9F047814630207A
:104450000C4615469A460BF0CFFF04F1100180463A
:1044600010300BF021F9A36A0022C8F828205BB1B4
:10447000022204F1200108F120009847E26AA36AB1
:10448000C8F82C20C8F82830E1682278C8F8045011
:10449000002388F80020C8F80830C8F80C3031B183
:1044A000534642464846FFF7CFFFC8F80C00A568C0
:1044B0006DB34746002630200BF09EFF044605F101
:1044C000100110300BF0F0F8A662AB6A4BB102227B
:1044D00005F1200104F120009847EA6AAB6AA36263
:1044E000E2622B78E660D5F80CE02370A6605346B4
:1044F000BC602246714648466760BEF1000F02D09C
:10450000FFF7A2FFE060AD682746002DD3D14046FB
:10451000BDE8F0872DE9F84F814624200C46164669
:104520009A460BF069FF04F11001834610300BF03E
:10453000BBF8E16894F820502078CBF804600023A1
:104540008BF820508BF80000CBF80830CBF80C30FB
:1045500031B153465A464846FFF7DCFFCBF80C0012
:10456000A56825B35E464FF0000824200BF044FFF9
:1045700005F11001044610300BF096F895F8203044
:1045800084F820302B78C4F80C80EF682370C4F8CE
:1045900008805346B460224639464846666017B1E3
:1045A000FFF7B8FFE060AD682646002DDDD1584624
:1045B000BDE8F88F2DE9F0414B680D685D1B0022C6
:1045C000AC1182B00E46804602604260826006D026
:1045D000B4F1806F62D228460BF00EFF04462544EA
:1045E000C8F80850C8F80040C8F8044096E8A00091
:1045F000BD424DD00026002C45D0294620460BF068
:1046000053F804F1140266615660E2612262A969FE
:10461000666204F1100EA9B1704601ABCDF804E05A
:10462000FFF712FFA061024600E01A469368002BD4
:10463000FBD1E26100E01846C368002BFBD16B6A36
:104640006362206204F12C02E66256606263A26338
:10465000296BE66304F1280EA9B1704601ABCDF8D1
:1046600004E0FFF757FF2063024600E01A46936814
:10467000002BFBD1626300E01846C368002BFBD11E
:10468000EB6BE363A0634035AF4204F14004B2D169
:104690004046C8F8044002B0BDE8F0812EF0FCFCB2
:1046A0002DE9F047DDF820A0064617461D4600F12B
:1046B000040800293BD0DAF804404FF00109002C2F
:1046C00045D06368CAF80430002B72D0DA6894428F
:1046D00059D000229A60A36A04F1100A23B104F1B0
:1046E000200108460322984750460AF089FF2946D0
:1046F00050460AF0D9FF0023A362AB69002B40D0DB
:10470000022205F1100104F120009847EA69AB6923
:10471000A362E262A246434648463A4651460EF03C
:104720002BFC7369013373615046BDE8F087424545
:10473000C1D002F1100118460BF0A4F8DAF80440D9
:1047400010F1000918BF4FF00109002CB9D1302039
:104750000BF052FE2946824610300AF0A5FFAB69E5
:10476000CAF82840002BD6D0022205F110010AF128
:1047700020009847EA69AB69CAF82C20CAF82830AB
:10478000C9E7A246C7E799680022DA600029A2D0EB
:10479000CA68CAF804100AB90EE01A46D368002B9A
:1047A000FBD1CAF804209368002B94D0CAF80430D7
:1047B00091E7CAF800308EE70A46F4E72DE9F041A8
:1047C0008C6888460746164684B304F110052946CE
:1047D00030460BF057F850B1A3685BB11C4604F1AA
:1047E0001005294630460BF04DF80028F4D1E36857
:1047F000002BF3D1B8B1D8F80C30A3420DD020462D
:104800000EF0B8FB0546103031460BF03BF820B9EE
:1048100078603D603846BDE8F081002387E81800E5
:104820003846BDE8F08128462546EDE70C1DE2E755
:104830002DE9F84314460A1D94420E4605461F46CC
:1048400035D004F11008414618460BF01BF881469C
:10485000A0B1F368A34247D020460EF08BFB394647
:10486000804610300BF00EF818B3D8F80C30002B3F
:104870003FD02C606C602846BDE8F883404639463E
:104880000BF000F8E8B13369A34235D020460EF0B2
:104890006FFB804600F1100138460AF0F3FF40B18B
:1048A000E3686BB3C5F80080C5F80480E3E74B69A3
:1048B00063B928463A463146FFF780FF2846BDE8EF
:1048C000F88368602C602846BDE8F883086939469B
:1048D00010300AF0D7FF0028EBD033696B6000235B
:1048E0002B602846BDE8F8832B606B602846BDE846
:1048F000F88385E80801BEE7C5F800906B60BAE769
:1049000085E81800B7E700BF2DE9F043846800F19F
:10491000040885B007460D46464694B1294604F181
:1049200010000AF0AFFF98BB2646A468002CF5D112
:10493000B04506D006F11004214628460AF0A2FF31
:1049400008B328200BF058FD00F1100481462946D9
:1049500020460AF0F1FE69203246002589F8200041
:104960002346394602A8C9F82450FFF761FF039A8D
:10497000029DF2B185B10120434649460EF0FCFA92
:104980007B6901337B6104F1100005B0BDE8F08361
:10499000E468002CC2D1CBE79045ECD002F11001C5
:1049A000204601920AF06EFF003018BF0120019AE4
:1049B000E2E799F82030732B08D020460AF020FE59
:1049C00048460BF01DFD05F11004DCE704F1100072
:1049D000FDF74AFEF1E700BF2DE9F0478A46804621
:1049E0000AF062FEDAF81430DAF81050274A5D1B3C
:1049F000EC10002302FB04F4C8F81030C8F814309F
:104A0000C8F8183034B1224B9C423DD828460BF0F0
:104A1000F3FC04462544C8F81850C8F81040C8F8FC
:104A20001440DAF81070DAF814904F4513D06CB1D6
:104A30003946204607F114060AF036FE0FCE3D7CBB
:104A4000257404F114050FC533682B602837B94568
:104A500004F12804EBD10023C8F81440C8F824302E
:104A6000DAF824306BB102220AF11C0108F11C00B3
:104A70009847DAF82820DAF82430C8F82430C8F843
:104A800028204046BDE8F0872EF006FBCDCCCCCCEC
:104A9000666666062DE9F0418C688846074616462C
:104AA00084B304F11005294630460AF0EBFE50B1FC
:104AB000A3685BB11C4604F11005294630460AF094
:104AC000E1FE0028F4D1E368002BF3D1B8B1D8F8A7
:104AD0000C30A3420DD020460EF04CFA05461030A3
:104AE00031460AF0CFFE20B978603D603846BDE817
:104AF000F081002387E818003846BDE8F081284699
:104B00002546EDE70C1DE2E72DE9F04186680369D3
:104B100088B00546079005960C4617460693002E6A
:104B200036D09B680022726003B1069300232A1DD1
:104B3000BC42AB606B61EA602A612BD00DF11408B6
:104B4000A3B92946224603A8FFF7A4FF0399049EB0
:104B500023463246203428461EB1CDF80080FFF7A8
:104B60009FFDA7420CD06B69002BEAD02869214633
:104B700010300AF087FE0028E3D02E690021E7E715
:104B80000798059E3146FFF759FA08B0BDE8F08155
:104B90000696CBE72846F5E7F0B5054699B00C46F2
:104BA00000210AF06DFD05F11406002305F12C0229
:104BB0006B61AB616B62EB622B636A63AA63EB634D
:104BC0001C49EE612E6228460AF0D2FD1A49684659
:104BD0000AF056FD194A1A4B1A49049408A807927C
:104BE000069305F110070AF04BFD174A174B1849B9
:104BF0000C9410A80F920E930AF042FD3846154B04
:104C0000154F1494694618AA17971693FFF77CFF5F
:104C10006E4618AC203CA36904F11001032208463B
:104C200003B1984720460AF0EBFCB442F2D1284683
:104C300019B0F0BDF4E90400FCE90400653000009F
:104C4000012200000CEB0400FD2F000019220000DF
:104C500000EA0400312200006D320000F0B5054684
:104C600099B00C4600210AF00BFD05F11406002353
:104C700005F12C026B61AB616B62EB622B636A63C3
:104C8000AA63EB631C49EE612E6228460AF070FDB0
:104C90001A4968460AF0F4FC194A1A4B1A49049456
:104CA00008A80792069305F110070AF0E9FC174AD5
:104CB000174B18490C9410A80F920E930AF0E0FCC1
:104CC0003846154B154F1494694618AA1797169332
:104CD000FFF71AFF6E4618AC203CA36904F11001DF
:104CE0000322084603B1984720460AF089FCB442E3
:104CF000F2D1284619B0F0BD08EA040010EA040019
:104D00003D320000B5200000D84D0500993000006C
:104D1000CD2000001CEA0400E52000003130000036
:104D2000F0B50546B1B00C4600210AF0A9FC05F12A
:104D30001406002305F12C026B61AB616B62EB6220
:104D40002B636A63AA63EB632A49EE612E622846ED
:104D50000AF00EFD284968460AF092FC274A284BC3
:104D60002849049408A8079206930AF089FC264A69
:104D7000264B27490C9410A80F920E930AF080FC42
:104D8000244A254B2549149418A8179216930AF023
:104D900077FC234A234B24491C9420A81F921E937E
:104DA00005F110070AF06CFC204A214B214924949C
:104DB00028A8279226930AF063FC38461E4B1F4F03
:104DC0002C94694630AA2F972E93FFF79DFE6E46CE
:104DD00030AC203CA36904F110010322084603B162
:104DE000984720460AF00CFCB442F2D1284631B074
:104DF000F0BD00BF24EA040014EA04008D32000074
:104E00004922000028EA04004D3D00006122000014
:104E10002CEA0400493E00007922000034EA040034
:104E2000FD3E00009122000038EA0400CD30000071
:104E3000A922000044EA0400C1220000A92F0000BA
:104E40002DE9F0418C6888460746164684B304F184
:104E50001005294630460AF015FD50B1A3685BB134
:104E60001C4604F11005294630460AF00BFD0028C7
:104E7000F4D1E368002BF3D1B8B1D8F80C30A342D9
:104E80000DD020460EF076F80546103031460AF077
:104E9000F9FC20B978603D603846BDE8F081002318
:104EA00087E818003846BDE8F08128462546EDE73A
:104EB0000C1DE2E72DE9F04F836887B00C461946D8
:104EC0000293064603699046002900F08A809D6897
:104ED0000022954208BF1D464A60321D002344450A
:104EE0000192B3607361F260326160D0002B35D102
:104EF0002246314604A8FFF7A3FFDDF814B0BBF14A
:104F0000000F25D0049B002B34D04FF00109002D59
:104F10003FD06F68002F62D0FB68AB424ED00023B9
:104F2000BB6005F1100A50460AF06AFB2146504664
:104F30000AF0BAFB237C85F820302B463D46194603
:104F40005A46019B48460EF017F8736901337361A6
:104F50001434A0452BD07369002BC9D03069214689
:104F600010300AF08FFC0028C2D0D6F810B0BBF188
:104F7000000FEDD0019B5B45C7D00BF1100120461F
:104F80000AF080FC10F1000918BF4FF00109002D54
:104F9000BFD124200BF030FA214603461030039392
:104FA0000AF082FB039B217C83F82010C7E702995B
:104FB0003046FFF75FF807B0BDE8F08FBB6800210F
:104FC000F960002BADD0D96809B90CE01946CB685F
:104FD000002BFBD18F68002F08BF0F46A1E7029777
:104FE0009FE7029D79E71946F4E700BFF0B5054653
:104FF000A9B00F460021144605F114060AF040FB43
:10500000002305F12C0239466B61AB616B62EB62E8
:105010002B636A63AA63EB63EE612E6228460AF093
:1050200097FB2D4968460AF02BFB2C4A2C4B2D4947
:10503000049408A80792069305950AF021FB2A4AD2
:105040002A4B2B490C9410A80F920E930D950AF041
:1050500017FB284A284B2949149418A8179216932D
:1050600005F1100715950AF00BFB254A254B26493B
:105070001C9420A81F921E931D950AF001FB384630
:10508000224B234F2494694628AA259527972693D7
:10509000FFF73AFD6E4628AC203CA36904F11001ED
:1050A0000322084603B1984720460AF0A9FAB44201
:1050B000F2D1184920460AF0E3FAFF2305AA214657
:1050C00005F128008DF81030FFF7F4FE20460AF0B5
:1050D00097FA284629B0F0BD14EA04001D340000F8
:1050E000752100004CEA0400C13400009121000049
:1050F00050EA040079330000AD21000044EA0400C6
:1051000031310000C921000058EA0400E521000007
:1051100065350000D04D050081422DE9F84F074666
:1051200043D091E85000056883688946C4EB0608BF
:105130005F495B1B4FEAE80ADB1001FB0AF201FB47
:1051400003F3934272D3D0F804B0C5EB0B0A4FEAD5
:10515000EA0301FB03F39A422AD8002AC8BF05EBF1
:10516000080A40F39E80214628460AF0F1FA04F12D
:10517000140EBEE80F00267C2E7405F114060FC62F
:105180002835DEF800303360554504F12804EAD1B3
:10519000D7F804B004E050460AF1280A0AF030FAC1
:1051A000DA45F8D13D6845447D603846BDE8F88F62
:1051B000002BC8BFA24476DD214628460AF0C8FA73
:1051C00004F1140EBEE80F00267C2E7405F11406BF
:1051D0000FC62834DEF800303360544505F1280549
:1051E000EAD17B683D6899E85000C5EB030A99460F
:1051F0005444B442D7D0B9F1000F10D021464846EC
:105200000AF052FA04F1140EBEE80F00257C89F86A
:10521000105009F114050FC5DEF800302B6028345A
:10522000B44209F12809E6D13D68BCE7924632B1A3
:10523000204B9A4239D840460BF0DEF88246B44201
:1052400018BFD14618D0B9F1000F10D021464846FA
:105250000AF02AFA04F1140EBEE80F00257C89F842
:10526000105009F114050FC5DEF800302B6028340A
:10527000A64209F12809E6D197E83000AC4206D0F1
:10528000204628340AF0BCF9A542F9D13D6815B191
:1052900028460BF0B5F80AEB0805BD60C7F800A07A
:1052A00082E7AA467CE7D946A2E72DF0F5FE00BFCB
:1052B000CDCCCCCC666666062DE9F04F83680568D8
:1052C0008BB00C46924698490190121B5B1B0292D0
:1052D0009B10921001FB03F301FB02F29A4200F2D1
:1052E0002981019B5E68C5EB06084FEAA80301FB14
:1052F00003F18A4249D8002A40F3B981029B2B442A
:105300001E4606AF0DF110094FF000082AE00222F8
:1053100004F11C0138469847D4F828E0626ACDF8B9
:1053200024E0089297E8030005F11C0389E80300D4
:1053300093E8030087E8030099E8030083E803008B
:105340006B6A0893A96A6A620991C5F828E01BB1E3
:1053500003223946384698472C35B54204F12C04CF
:1053600000F0BF80214628460AF0F2F904F110014E
:1053700005F11000FFF7D0FE636ACDF82080002B06
:10538000C5D11A46DDF824E0CCE70029A04444DD6D
:1053900006AF0DF110094FF0000B29E0022204F1D5
:1053A0001C0138469847D4F828E0626ACDF824E01A
:1053B000089297E8030005F11C0389E8030093E8CD
:1053C000030087E8030099E8030083E803006B6AA1
:1053D0000893A96A6A620991C5F828E01BB1032203
:1053E0003946384698472C35AE4204F12C0412D089
:1053F000214628460AF0ACF904F1100105F110002D
:10540000FFF78AFE636ACDF820B0002BC6D11A469A
:10541000DDF824E0CDE7019B5E68C2455CD0DFF893
:1054200010B14FF00009002E50D0414630460AF02E
:105430003BF9D8F81430D8F81050C6F810905D1B1E
:10544000EC100BFB04F4C6F81490C6F818903CB1AD
:10545000364B9C4200F2108128460AF0CDFF0446EC
:105460002544B56134617461D8F81050D8F81470CF
:10547000BD4219D09CB1294620460AF015F905F124
:10548000140CBCE80F0095F810E084F810E004F16B
:10549000140EAEE80F00DCF80030CEF800302835EE
:1054A000AF4204F12804E5D17461C6F82490D8F81D
:1054B00024305BB1022208F11C0106F11C00984760
:1054C000D8F82830B362D8F82430736208F12C0879
:1054D000C24506F12C06A6D1019B5E600BB0BDE86B
:1054E000F08F019BD3F804804645F5D037467B6AA0
:1054F00023B107F11C010846032298473C697D69E6
:10550000AC4206D0204628340AF07AF8A542F9D1F8
:105510003D6915B128460AF073FF38462C370AF06A
:105520006FF84745E3D1D7E7A38B2EBA66666606C8
:10553000CDCCCCCC002A00F09D80504B9A4200F29A
:105540009B8002980AF058FF039054455ED0DFF824
:1055500034B1039F4FF00009A046002F50D04146C0
:1055600038460AF0A1F8D8F81020D8F81440C7F847
:105570001090A61AF5100BFB05F5C7F81490C7F8A4
:10558000189055B13E4B9D4276D830460AF034FF14
:10559000D8F81020D8F814400546AB19A2423D6156
:1055A000BB617D611AD016469DB1314628460AF08E
:1055B0007BF806F1140CBCE80F0096F810E085F8B3
:1055C00010E005F1140EAEE80F00DCF80030CEF864
:1055D00000302836B44205F12805E5D1D8F824304A
:1055E0007D61C7F824905BB1022208F11C0107F12C
:1055F0001C009847D8F82820D8F82430BA627B627B
:1056000008F12C08C24507F12C07A6D1019A92E8AF
:10561000C000BE421DD0736A23B106F11C010846CA
:105620000322984734697569AC4206D02046283475
:1056300009F0E6FFA542F9D1356915B128460AF00F
:10564000DFFE30462C3609F0DBFFB742E3D1019B89
:105650001F6817B138460AF0D3FE0398029B0199E0
:1056600003444B608B6008600BB0BDE8F08FB04620
:105670002E4639E7039268E72DF00EFD5D74D105E3
:1056800066666606CDCCCCCC2DE9F043C9B01CAF24
:105690008046384600241D4691460AF005F83946F2
:1056A00040460AF001F8C8F81040C8F81440C8F89D
:1056B0001840384609F0A4FF4749384609F0E0FF92
:1056C0004649684609F0DCFF694608A809F0ECFF86
:1056D000662608A912AA20A88DF830608DF83440FB
:1056E0008DF84040209421942294FDF739FA3C4BE8
:1056F0003C4A3D49259327A82692CDF88C902495C5
:1057000009F0BEFF354904A809F0BAFF04A912A8A0
:1057100009F0CAFF3A4612A92BA88DF858608DF8F7
:105720005C408DF868402B942C942D94FDF718FA6A
:105730002E4A2F4B2F49319232A830932E9509F0E3
:105740009FFF2D4A2D4B2E493C923DA83B932D4E59
:10575000369437943894399509F092FFDFF8A8E031
:105760004696394608F110004FF0000348AA4495C8
:10577000419442944394CDF81CE1FFF79DFD48AE5F
:105780002C3E736A23B106F11C0108460322984798
:1057900030697569A842044606D02046283409F0CD
:1057A0002FFFA542F9D1306908B10AF029FE304631
:1057B00009F026FFBE42E3D112A809F021FF04A898
:1057C00009F01EFF08A809F01BFF684609F018FF42
:1057D000404649B0BDE8F0835CEA040014EA0400E6
:1057E000112000004579000064EA0400E57400001F
:1057F0002D20000068EA0400DD24000045200000A0
:1058000070EA04006D2000005D2000002DE9F043E7
:10581000ADF2644D074647A800241D46164609F020
:1058200043FF47A9384609F03FFF3C617C61BC61FA
:1058300047A809F0E5FE984947A809F021FF974AD3
:10584000974B98494E9552A8519250934B944C9433
:105850004D9409F015FF944A944B954959955DA8CC
:105860005C925B9356945794589409F009FF914ABF
:10587000914B9249649568A867926693619462948B
:10588000639409F0FDFE8E4A8E4B8F496F9573A885
:10589000729271936C946D946E9409F0F1FE8B4A40
:1058A0008B4B8C497A957EA87D927C9377947894E3
:1058B000799409F0E5FE884B884A8949879389A83D
:1058C0008892859582948394849409F0D9FE8549C1
:1058D00001A809F0D5FE01A915A809F0E5FE4FF0D1
:1058E000660815A91FAA8DA88DF864808DF86840F8
:1058F0008DF874408D948E948F94FDF731F97A4A27
:105900007A4B7B49909594A89392929309F0B8FEB4
:10591000784A794B79499B959FA89E929D9398943C
:1059200099949A9409F0ACFE754A764B7649A695FF
:10593000AAA8A992A893A394A494A59409F0A0FE60
:10594000724A734B7349B492B5A8B393B195AE94B0
:10595000AF94B09409F094FE6F4905A809F090FE49
:1059600005A91FA809F0A0FE4FF001094FF0000E95
:105970006A4BCDF894E01FA929AAB9A88DF88C80AC
:1059800026938DF89C40B994BA94BB948DF890906E
:10599000FDF7E6F8624A634B6349BC95C0A8BF9225
:1059A000BE9309F06DFE614A614B6249C795CBA871
:1059B000CA92C993C494C594C69409F061FE5E4A24
:1059C0005E4B5F49D296D6A8D395D592D493CF9407
:1059D000D094D19409F054FE5A4B5B4A5B49DF9353
:1059E000E1A8E092DD96DE95DA94DB94DC9409F090
:1059F00047FE494909A809F043FE09A929A809F069
:105A000053FE29A933AAE5A88DF8B4808DF8B840D3
:105A10008DF8C440E594E694E794FDF7A1F84C4B6B
:105A20004C4A4D49EA93ECA8EB92E896E99509F0C7
:105A300027FE4A490DA809F023FE0DA933A809F055
:105A400033FE33A93DAAF0A88DF8DC808DF8E04044
:105A50008DF8EC40F094F194F294FDF781F8404A0F
:105A6000404B4149F692F7A8F593F396F49509F067
:105A700007FE3E4911A809F003FE11A93DA809F04F
:105A800013FEDFF8F0E03A4BCDF80CE147AA3DA950
:105A9000FBA88DF804816FE078EA0400E52500009A
:105AA000351E00001CEB0400F12500004D1E000017
:105AB000E0050500F9250000651E0000C85405003A
:105AC000012600007D1E000080EA04000926000077
:105AD000951E00008CEA0400AD1E00001126000097
